{
  "_format": "hh-sol-artifact-1",
  "contractName": "Box",
  "sourceName": "contracts/TokenERC.sol",
  "abi": [
    {
      "anonymous": false,
      "inputs": [
        {
          "indexed": false,
          "internalType": "uint256",
          "name": "value",
          "type": "uint256"
        }
      ],
      "name": "ValueChanges",
      "type": "event"
    },
    {
      "inputs": [],
      "name": "retrive",
      "outputs": [
        {
          "internalType": "uint256",
          "name": "",
          "type": "uint256"
        }
      ],
      "stateMutability": "view",
      "type": "function"
    },
    {
      "inputs": [
        {
          "internalType": "uint256",
          "name": "value",
          "type": "uint256"
        }
      ],
      "name": "store",
      "outputs": [],
      "stateMutability": "nonpayable",
      "type": "function"
    }
  ],
  "bytecode": "0x608060405234801561001057600080fd5b5061017e806100206000396000f3fe608060405234801561001057600080fd5b50600436106100365760003560e01c80636057361d1461003b578063a6b7fc5b14610057575b600080fd5b610055600480360381019061005091906100d4565b610075565b005b61005f6100b6565b60405161006c919061010c565b60405180910390f35b806000819055507ff22ae668c98a5cca44067f3594925de65c84afa6a092f34ffe7a18f703d8883d816040516100ab919061010c565b60405180910390a150565b60008054905090565b6000813590506100ce81610131565b92915050565b6000602082840312156100e657600080fd5b60006100f4848285016100bf565b91505092915050565b61010681610127565b82525050565b600060208201905061012160008301846100fd565b92915050565b6000819050919050565b61013a81610127565b811461014557600080fd5b5056fea2646970667358221220efb9e73e55c0ab69319be0f118053b52444caa2426d450449325d76603d198b364736f6c63430008040033",
  "linkReferences": {},
  "deployedLinkReferences": {}
}